{"abi":[{"type":"constructor","inputs":[],"stateMutability":"nonpayable"},{"type":"receive","stateMutability":"payable"},{"type":"function","name":"closePosition","inputs":[{"name":"positionIndex","type":"uint256","internalType":"uint256"},{"name":"currentPrice","type":"uint256","internalType":"uint256"}],"outputs":[],"stateMutability":"nonpayable"},{"type":"function","name":"configureBotSettings","inputs":[{"name":"maxPositionSize","type":"uint256","internalType":"uint256"},{"name":"dailyTradeLimit","type":"uint256","internalType":"uint256"},{"name":"isActive","type":"bool","internalType":"bool"},{"name":"minConfidence","type":"uint256","internalType":"uint256"}],"outputs":[],"stateMutability":"nonpayable"},{"type":"function","name":"dailyTradeCount","inputs":[{"name":"","type":"address","internalType":"address"}],"outputs":[{"name":"","type":"uint256","internalType":"uint256"}],"stateMutability":"view"},{"type":"function","name":"deposit","inputs":[],"outputs":[],"stateMutability":"payable"},{"type":"function","name":"emergencyWithdraw","inputs":[],"outputs":[],"stateMutability":"nonpayable"},{"type":"function","name":"executeTrade","inputs":[{"name":"amount","type":"uint256","internalType":"uint256"},{"name":"price","type":"uint256","internalType":"uint256"},{"name":"isBuy","type":"bool","internalType":"bool"},{"name":"coinId","type":"uint8","internalType":"uint8"}],"outputs":[],"stateMutability":"nonpayable"},{"type":"function","name":"getBalance","inputs":[],"outputs":[{"name":"","type":"uint256","internalType":"uint256"}],"stateMutability":"view"},{"type":"function","name":"getBotConfig","inputs":[],"outputs":[{"name":"","type":"tuple","internalType":"struct PrivateTradingBot.BotConfig","components":[{"name":"maxPositionSize","type":"uint256","internalType":"uint256"},{"name":"dailyTradeLimit","type":"uint256","internalType":"uint256"},{"name":"isActive","type":"bool","internalType":"bool"},{"name":"minConfidence","type":"uint256","internalType":"uint256"}]}],"stateMutability":"view"},{"type":"function","name":"getOpenPositions","inputs":[],"outputs":[{"name":"","type":"tuple[]","internalType":"struct PrivateTradingBot.Position[]","components":[{"name":"entryPrice","type":"uint256","internalType":"uint256"},{"name":"amount","type":"uint256","internalType":"uint256"},{"name":"stopLoss","type":"uint256","internalType":"uint256"},{"name":"takeProfit","type":"uint256","internalType":"uint256"},{"name":"openedAt","type":"uint256","internalType":"uint256"},{"name":"isActive","type":"bool","internalType":"bool"},{"name":"coinId","type":"uint8","internalType":"uint8"}]}],"stateMutability":"view"},{"type":"function","name":"getPublicStats","inputs":[],"outputs":[{"name":"users","type":"uint256","internalType":"uint256"},{"name":"trades","type":"uint256","internalType":"uint256"},{"name":"userDailyTrades","type":"uint256","internalType":"uint256"}],"stateMutability":"view"},{"type":"function","name":"getTradeHistory","inputs":[],"outputs":[{"name":"","type":"tuple[]","internalType":"struct PrivateTradingBot.Trade[]","components":[{"name":"amount","type":"uint256","internalType":"uint256"},{"name":"price","type":"uint256","internalType":"uint256"},{"name":"isBuy","type":"bool","internalType":"bool"},{"name":"timestamp","type":"uint256","internalType":"uint256"},{"name":"coinId","type":"uint8","internalType":"uint8"}]}],"stateMutability":"view"},{"type":"function","name":"getUserBalance","inputs":[{"name":"user","type":"address","internalType":"address"}],"outputs":[{"name":"","type":"uint256","internalType":"uint256"}],"stateMutability":"view"},{"type":"function","name":"isPaused","inputs":[],"outputs":[{"name":"","type":"bool","internalType":"bool"}],"stateMutability":"view"},{"type":"function","name":"openPosition","inputs":[{"name":"amount","type":"uint256","internalType":"uint256"},{"name":"entryPrice","type":"uint256","internalType":"uint256"},{"name":"stopLoss","type":"uint256","internalType":"uint256"},{"name":"takeProfit","type":"uint256","internalType":"uint256"},{"name":"coinId","type":"uint8","internalType":"uint8"}],"outputs":[],"stateMutability":"nonpayable"},{"type":"function","name":"owner","inputs":[],"outputs":[{"name":"","type":"address","internalType":"address"}],"stateMutability":"view"},{"type":"function","name":"pause","inputs":[],"outputs":[],"stateMutability":"nonpayable"},{"type":"function","name":"totalTrades","inputs":[],"outputs":[{"name":"","type":"uint256","internalType":"uint256"}],"stateMutability":"view"},{"type":"function","name":"totalUsers","inputs":[],"outputs":[{"name":"","type":"uint256","internalType":"uint256"}],"stateMutability":"view"},{"type":"function","name":"unpause","inputs":[],"outputs":[],"stateMutability":"nonpayable"},{"type":"function","name":"withdraw","inputs":[{"name":"amount","type":"uint256","internalType":"uint256"}],"outputs":[],"stateMutability":"nonpayable"},{"type":"event","name":"BotConfigured","inputs":[{"name":"user","type":"address","indexed":true,"internalType":"address"},{"name":"timestamp","type":"uint256","indexed":false,"internalType":"uint256"}],"anonymous":false},{"type":"event","name":"Deposit","inputs":[{"name":"user","type":"address","indexed":true,"internalType":"address"},{"name":"amount","type":"uint256","indexed":false,"internalType":"uint256"},{"name":"timestamp","type":"uint256","indexed":false,"internalType":"uint256"}],"anonymous":false},{"type":"event","name":"PositionClosed","inputs":[{"name":"user","type":"address","indexed":true,"internalType":"address"},{"name":"timestamp","type":"uint256","indexed":false,"internalType":"uint256"},{"name":"coinId","type":"uint8","indexed":false,"internalType":"uint8"},{"name":"pnl","type":"int256","indexed":false,"internalType":"int256"}],"anonymous":false},{"type":"event","name":"PositionOpened","inputs":[{"name":"user","type":"address","indexed":true,"internalType":"address"},{"name":"timestamp","type":"uint256","indexed":false,"internalType":"uint256"},{"name":"coinId","type":"uint8","indexed":false,"internalType":"uint8"},{"name":"amount","type":"uint256","indexed":false,"internalType":"uint256"},{"name":"entryPrice","type":"uint256","indexed":false,"internalType":"uint256"}],"anonymous":false},{"type":"event","name":"TradeExecuted","inputs":[{"name":"user","type":"address","indexed":true,"internalType":"address"},{"name":"timestamp","type":"uint256","indexed":false,"internalType":"uint256"},{"name":"isBuy","type":"bool","indexed":false,"internalType":"bool"},{"name":"coinId","type":"uint8","indexed":false,"internalType":"uint8"},{"name":"amount","type":"uint256","indexed":false,"internalType":"uint256"},{"name":"price","type":"uint256","indexed":false,"internalType":"uint256"}],"anonymous":false},{"type":"event","name":"Withdrawal","inputs":[{"name":"user","type":"address","indexed":true,"internalType":"address"},{"name":"amount","type":"uint256","indexed":false,"internalType":"uint256"},{"name":"timestamp","type":"uint256","indexed":false,"internalType":"uint256"}],"anonymous":false}],"bytecode":{"object":"0x6080604052348015600e575f5ffd5b503360065f6101000a81548173ffffffffffffffffffffffffffffffffffffffff021916908373ffffffffffffffffffffffffffffffffffffffff1602179055505f600660146101000a81548160ff021916908315150217905550613044806100765f395ff3fe608060405260043610610122575f3560e01c80638456cb591161009f578063d251c05a11610063578063d251c05a14610478578063db2e21bc146104a2578063e275c997146104b8578063e6424c9f146104e2578063ee017ea61461050a57610226565b80638456cb59146103da5780638da5cb5b146103f0578063b187bd261461041a578063bff1f9e114610444578063d0e30db01461046e57610226565b80632e1a7d4d116100e65780632e1a7d4d146102f85780632eaaf8f6146103205780633f4ba83a1461034c5780634773489214610362578063672269731461039e57610226565b80630fbac3331461022a57806312065fe01461025457806315de4dfb1461027e5780631faba638146102a85780632d6ce61d146102d057610226565b3661022657345f5f3373ffffffffffffffffffffffffffffffffffffffff1673ffffffffffffffffffffffffffffffffffffffff1681526020019081526020015f205f8282546101729190612001565b92505081905550345f5f3373ffffffffffffffffffffffffffffffffffffffff1673ffffffffffffffffffffffffffffffffffffffff1681526020019081526020015f2054036101d45760075f8154809291906101ce90612034565b91905055505b3373ffffffffffffffffffffffffffffffffffffffff167f90890809c654f11d6e72a28fa60149770a0d11ec6c92319d6ceb2bb0a4ea1a15344260405161021c92919061208a565b60405180910390a2005b5f5ffd5b348015610235575f5ffd5b5061023e610532565b60405161024b9190612229565b60405180910390f35b34801561025f575f5ffd5b50610268610631565b6040516102759190612249565b60405180910390f35b348015610289575f5ffd5b50610292610674565b60405161029f91906122b5565b60405180910390f35b3480156102b3575f5ffd5b506102ce60048036038101906102c99190612326565b610700565b005b3480156102db575f5ffd5b506102f660048036038101906102f1919061239d565b610c50565b005b348015610303575f5ffd5b5061031e600480360381019061031991906123db565b610f62565b005b34801561032b575f5ffd5b5061033461117e565b60405161034393929190612406565b60405180910390f35b348015610357575f5ffd5b506103606111d0565b005b34801561036d575f5ffd5b5061038860048036038101906103839190612495565b61127b565b6040516103959190612249565b60405180910390f35b3480156103a9575f5ffd5b506103c460048036038101906103bf9190612495565b61134f565b6040516103d19190612249565b60405180910390f35b3480156103e5575f5ffd5b506103ee611364565b005b3480156103fb575f5ffd5b50610404611410565b60405161041191906124cf565b60405180910390f35b348015610425575f5ffd5b5061042e611435565b60405161043b91906124f7565b60405180910390f35b34801561044f575f5ffd5b50610458611448565b6040516104659190612249565b60405180910390f35b61047661144e565b005b348015610483575f5ffd5b5061048c6115df565b604051610499919061261e565b60405180910390f35b3480156104ad575f5ffd5b506104b66116c9565b005b3480156104c3575f5ffd5b506104cc611829565b6040516104d99190612249565b60405180910390f35b3480156104ed575f5ffd5b5061050860048036038101906105039190612668565b61182f565b005b348015610515575f5ffd5b50610530600480360381019061052b91906126cc565b611cf7565b005b606060025f3373ffffffffffffffffffffffffffffffffffffffff1673ffffffffffffffffffffffffffffffffffffffff1681526020019081526020015f20805480602002602001604051908101604052809291908181526020015f905b82821015610628578382905f5260205f2090600602016040518060e00160405290815f820154815260200160018201548152602001600282015481526020016003820154815260200160048201548152602001600582015f9054906101000a900460ff161515151581526020016005820160019054906101000a900460ff1660ff1660ff168152505081526020019060010190610590565b50505050905090565b5f5f5f3373ffffffffffffffffffffffffffffffffffffffff1673ffffffffffffffffffffffffffffffffffffffff1681526020019081526020015f2054905090565b61067c611fa5565b60035f3373ffffffffffffffffffffffffffffffffffffffff1673ffffffffffffffffffffffffffffffffffffffff1681526020019081526020015f206040518060800160405290815f820154815260200160018201548152602001600282015f9054906101000a900460ff16151515158152602001600382015481525050905090565b600660149054906101000a900460ff1615610750576040517f08c379a00000000000000000000000000000000000000000000000000000000081526004016107479061278a565b60405180910390fd5b610758611eb3565b5f60035f3373ffffffffffffffffffffffffffffffffffffffff1673ffffffffffffffffffffffffffffffffffffffff1681526020019081526020015f206040518060800160405290815f820154815260200160018201548152602001600282015f9054906101000a900460ff161515151581526020016003820154815250509050806020015160045f3373ffffffffffffffffffffffffffffffffffffffff1673ffffffffffffffffffffffffffffffffffffffff1681526020019081526020015f20541061085d576040517f08c379a0000000000000000000000000000000000000000000000000000000008152600401610854906127f2565b60405180910390fd5b5f60035f3373ffffffffffffffffffffffffffffffffffffffff1673ffffffffffffffffffffffffffffffffffffffff1681526020019081526020015f206040518060800160405290815f820154815260200160018201548152602001600282015f9054906101000a900460ff1615151515815260200160038201548152505090508060400151610923576040517f08c379a000000000000000000000000000000000000000000000000000000000815260040161091a9061285a565b60405180910390fd5b5f5f5f3373ffffffffffffffffffffffffffffffffffffffff1673ffffffffffffffffffffffffffffffffffffffff1681526020019081526020015f20549050878110156109a6576040517f08c379a000000000000000000000000000000000000000000000000000000000815260040161099d906128c2565b60405180910390fd5b8686106109e8576040517f08c379a00000000000000000000000000000000000000000000000000000000081526004016109df9061292a565b60405180910390fd5b868511610a2a576040517f08c379a0000000000000000000000000000000000000000000000000000000008152600401610a2190612992565b60405180910390fd5b5f6040518060e001604052808981526020018a81526020018881526020018781526020014281526020016001151581526020018660ff16815250905060025f3373ffffffffffffffffffffffffffffffffffffffff1673ffffffffffffffffffffffffffffffffffffffff1681526020019081526020015f2081908060018154018082558091505060019003905f5260205f2090600602015f909190919091505f820151815f01556020820151816001015560408201518160020155606082015181600301556080820151816004015560a0820151816005015f6101000a81548160ff02191690831515021790555060c08201518160050160016101000a81548160ff021916908360ff16021790555050508882610b4891906129b0565b5f5f3373ffffffffffffffffffffffffffffffffffffffff1673ffffffffffffffffffffffffffffffffffffffff1681526020019081526020015f208190555060045f3373ffffffffffffffffffffffffffffffffffffffff1673ffffffffffffffffffffffffffffffffffffffff1681526020019081526020015f205f815480929190610bd590612034565b919050555060085f815480929190610bec90612034565b91905055503373ffffffffffffffffffffffffffffffffffffffff167f9a99f0d83ea15216987ecd4ed332a7338eafafe12db86adf283528ec63c02d3f42878c8c604051610c3d94939291906129f2565b60405180910390a2505050505050505050565b600660149054906101000a900460ff1615610ca0576040517f08c379a0000000000000000000000000000000000000000000000000000000008152600401610c979061278a565b60405180910390fd5b60025f3373ffffffffffffffffffffffffffffffffffffffff1673ffffffffffffffffffffffffffffffffffffffff1681526020019081526020015f20805490508210610d22576040517f08c379a0000000000000000000000000000000000000000000000000000000008152600401610d1990612a7f565b60405180910390fd5b5f60025f3373ffffffffffffffffffffffffffffffffffffffff1673ffffffffffffffffffffffffffffffffffffffff1681526020019081526020015f208381548110610d7257610d71612a9d565b5b905f5260205f2090600602019050806005015f9054906101000a900460ff16610dd0576040517f08c379a0000000000000000000000000000000000000000000000000000000008152600401610dc790612b14565b60405180910390fd5b5f815f015490505f826001015490505f82851115610e115782828487610df691906129b0565b610e009190612b32565b610e0a9190612ba0565b9050610e3f565b82828685610e1f91906129b0565b610e299190612b32565b610e339190612ba0565b610e3c90612bd9565b90505b5f8183610e4c9190612c1f565b90505f5f5f3373ffffffffffffffffffffffffffffffffffffffff1673ffffffffffffffffffffffffffffffffffffffff1681526020019081526020015f205490508181610e9a9190612001565b5f5f3373ffffffffffffffffffffffffffffffffffffffff1673ffffffffffffffffffffffffffffffffffffffff1681526020019081526020015f20819055505f866005015f6101000a81548160ff0219169083151502179055503373ffffffffffffffffffffffffffffffffffffffff167f266a1b0a00dd23c977bdcff5505281ef8ec719abd4e5c2e3af4e31973b47c9e7428860050160019054906101000a900460ff1686604051610f5093929190612c6f565b60405180910390a25050505050505050565b600660149054906101000a900460ff1615610fb2576040517f08c379a0000000000000000000000000000000000000000000000000000000008152600401610fa99061278a565b60405180910390fd5b5f5f5f3373ffffffffffffffffffffffffffffffffffffffff1673ffffffffffffffffffffffffffffffffffffffff1681526020019081526020015f2054905081811015611035576040517f08c379a000000000000000000000000000000000000000000000000000000000815260040161102c906128c2565b60405180910390fd5b818161104191906129b0565b5f5f3373ffffffffffffffffffffffffffffffffffffffff1673ffffffffffffffffffffffffffffffffffffffff1681526020019081526020015f20819055505f3373ffffffffffffffffffffffffffffffffffffffff16836040516110a690612cd1565b5f6040518083038185875af1925050503d805f81146110e0576040519150601f19603f3d011682016040523d82523d5f602084013e6110e5565b606091505b5050905080611129576040517f08c379a000000000000000000000000000000000000000000000000000000000815260040161112090612d2f565b60405180910390fd5b3373ffffffffffffffffffffffffffffffffffffffff167fdf273cb619d95419a9cd0ec88123a0538c85064229baa6363788f743fff90deb844260405161117192919061208a565b60405180910390a2505050565b5f5f5f60075460085460045f3373ffffffffffffffffffffffffffffffffffffffff1673ffffffffffffffffffffffffffffffffffffffff1681526020019081526020015f2054925092509250909192565b60065f9054906101000a900473ffffffffffffffffffffffffffffffffffffffff1673ffffffffffffffffffffffffffffffffffffffff163373ffffffffffffffffffffffffffffffffffffffff161461125f576040517f08c379a000000000000000000000000000000000000000000000000000000000815260040161125690612d97565b60405180910390fd5b5f600660146101000a81548160ff021916908315150217905550565b5f60065f9054906101000a900473ffffffffffffffffffffffffffffffffffffffff1673ffffffffffffffffffffffffffffffffffffffff163373ffffffffffffffffffffffffffffffffffffffff161461130b576040517f08c379a000000000000000000000000000000000000000000000000000000000815260040161130290612d97565b60405180910390fd5b5f5f8373ffffffffffffffffffffffffffffffffffffffff1673ffffffffffffffffffffffffffffffffffffffff1681526020019081526020015f20549050919050565b6004602052805f5260405f205f915090505481565b60065f9054906101000a900473ffffffffffffffffffffffffffffffffffffffff1673ffffffffffffffffffffffffffffffffffffffff163373ffffffffffffffffffffffffffffffffffffffff16146113f3576040517f08c379a00000000000000000000000000000000000000000000000000000000081526004016113ea90612d97565b60405180910390fd5b6001600660146101000a81548160ff021916908315150217905550565b60065f9054906101000a900473ffffffffffffffffffffffffffffffffffffffff1681565b600660149054906101000a900460ff1681565b60075481565b600660149054906101000a900460ff161561149e576040517f08c379a00000000000000000000000000000000000000000000000000000000081526004016114959061278a565b60405180910390fd5b5f34116114e0576040517f08c379a00000000000000000000000000000000000000000000000000000000081526004016114d790612dff565b60405180910390fd5b345f5f3373ffffffffffffffffffffffffffffffffffffffff1673ffffffffffffffffffffffffffffffffffffffff1681526020019081526020015f205f82825461152b9190612001565b92505081905550345f5f3373ffffffffffffffffffffffffffffffffffffffff1673ffffffffffffffffffffffffffffffffffffffff1681526020019081526020015f20540361158d5760075f81548092919061158790612034565b91905055505b3373ffffffffffffffffffffffffffffffffffffffff167f90890809c654f11d6e72a28fa60149770a0d11ec6c92319d6ceb2bb0a4ea1a1534426040516115d592919061208a565b60405180910390a2565b606060015f3373ffffffffffffffffffffffffffffffffffffffff1673ffffffffffffffffffffffffffffffffffffffff1681526020019081526020015f20805480602002602001604051908101604052809291908181526020015f905b828210156116c0578382905f5260205f2090600502016040518060a00160405290815f820154815260200160018201548152602001600282015f9054906101000a900460ff1615151515815260200160038201548152602001600482015f9054906101000a900460ff1660ff1660ff16815250508152602001906001019061163d565b50505050905090565b60065f9054906101000a900473ffffffffffffffffffffffffffffffffffffffff1673ffffffffffffffffffffffffffffffffffffffff163373ffffffffffffffffffffffffffffffffffffffff1614611758576040517f08c379a000000000000000000000000000000000000000000000000000000000815260040161174f90612d97565b60405180910390fd5b5f4790505f60065f9054906101000a900473ffffffffffffffffffffffffffffffffffffffff1673ffffffffffffffffffffffffffffffffffffffff16826040516117a290612cd1565b5f6040518083038185875af1925050503d805f81146117dc576040519150601f19603f3d011682016040523d82523d5f602084013e6117e1565b606091505b5050905080611825576040517f08c379a000000000000000000000000000000000000000000000000000000000815260040161181c90612e67565b60405180910390fd5b5050565b60085481565b600660149054906101000a900460ff161561187f576040517f08c379a00000000000000000000000000000000000000000000000000000000081526004016118769061278a565b60405180910390fd5b611887611eb3565b5f60035f3373ffffffffffffffffffffffffffffffffffffffff1673ffffffffffffffffffffffffffffffffffffffff1681526020019081526020015f206040518060800160405290815f820154815260200160018201548152602001600282015f9054906101000a900460ff161515151581526020016003820154815250509050806020015160045f3373ffffffffffffffffffffffffffffffffffffffff1673ffffffffffffffffffffffffffffffffffffffff1681526020019081526020015f20541061198c576040517f08c379a0000000000000000000000000000000000000000000000000000000008152600401611983906127f2565b60405180910390fd5b5f60035f3373ffffffffffffffffffffffffffffffffffffffff1673ffffffffffffffffffffffffffffffffffffffff1681526020019081526020015f206040518060800160405290815f820154815260200160018201548152602001600282015f9054906101000a900460ff1615151515815260200160038201548152505090508060400151611a52576040517f08c379a0000000000000000000000000000000000000000000000000000000008152600401611a499061285a565b60405180910390fd5b5f5f5f3373ffffffffffffffffffffffffffffffffffffffff1673ffffffffffffffffffffffffffffffffffffffff1681526020019081526020015f205490505f6103e888611aa19190612ba0565b88611aac9190612001565b905080821015611af1576040517f08c379a0000000000000000000000000000000000000000000000000000000008152600401611ae8906128c2565b60405180910390fd5b5f6040518060a001604052808a815260200189815260200188151581526020014281526020018760ff16815250905060015f3373ffffffffffffffffffffffffffffffffffffffff1673ffffffffffffffffffffffffffffffffffffffff1681526020019081526020015f2081908060018154018082558091505060019003905f5260205f2090600502015f909190919091505f820151815f0155602082015181600101556040820151816002015f6101000a81548160ff021916908315150217905550606082015181600301556080820151816004015f6101000a81548160ff021916908360ff16021790555050508183611bed91906129b0565b5f5f3373ffffffffffffffffffffffffffffffffffffffff1673ffffffffffffffffffffffffffffffffffffffff1681526020019081526020015f208190555060045f3373ffffffffffffffffffffffffffffffffffffffff1673ffffffffffffffffffffffffffffffffffffffff1681526020019081526020015f205f815480929190611c7a90612034565b919050555060085f815480929190611c9190612034565b91905055503373ffffffffffffffffffffffffffffffffffffffff167f7315db5de0c0a1b5ba4396d4e88a5548b43b9bfbf6cf290458c3c596300ac8e44289898d8d604051611ce4959493929190612e85565b60405180910390a2505050505050505050565b6064841115611d3b576040517f08c379a0000000000000000000000000000000000000000000000000000000008152600401611d3290612f20565b60405180910390fd5b6064811115611d7f576040517f08c379a0000000000000000000000000000000000000000000000000000000008152600401611d7690612f88565b60405180910390fd5b5f8311611dc1576040517f08c379a0000000000000000000000000000000000000000000000000000000008152600401611db890612ff0565b60405180910390fd5b604051806080016040528085815260200184815260200183151581526020018281525060035f3373ffffffffffffffffffffffffffffffffffffffff1673ffffffffffffffffffffffffffffffffffffffff1681526020019081526020015f205f820151815f0155602082015181600101556040820151816002015f6101000a81548160ff021916908315150217905550606082015181600301559050503373ffffffffffffffffffffffffffffffffffffffff167fbdc8fdb0e2700e6e44dc7e3e10e8ff6e6aa04b212185417c1b53440988e2d0c542604051611ea59190612249565b60405180910390a250505050565b5f6201518042611ec39190612ba0565b90505f6201518060055f3373ffffffffffffffffffffffffffffffffffffffff1673ffffffffffffffffffffffffffffffffffffffff1681526020019081526020015f2054611f129190612ba0565b905080821115611fa1575f60045f3373ffffffffffffffffffffffffffffffffffffffff1673ffffffffffffffffffffffffffffffffffffffff1681526020019081526020015f20819055504260055f3373ffffffffffffffffffffffffffffffffffffffff1673ffffffffffffffffffffffffffffffffffffffff1681526020019081526020015f20819055505b5050565b60405180608001604052805f81526020015f81526020015f151581526020015f81525090565b5f819050919050565b7f4e487b71000000000000000000000000000000000000000000000000000000005f52601160045260245ffd5b5f61200b82611fcb565b915061201683611fcb565b925082820190508082111561202e5761202d611fd4565b5b92915050565b5f61203e82611fcb565b91507fffffffffffffffffffffffffffffffffffffffffffffffffffffffffffffffff82036120705761206f611fd4565b5b600182019050919050565b61208481611fcb565b82525050565b5f60408201905061209d5f83018561207b565b6120aa602083018461207b565b9392505050565b5f81519050919050565b5f82825260208201905092915050565b5f819050602082019050919050565b6120e381611fcb565b82525050565b5f8115159050919050565b6120fd816120e9565b82525050565b5f60ff82169050919050565b61211881612103565b82525050565b60e082015f8201516121325f8501826120da565b50602082015161214560208501826120da565b50604082015161215860408501826120da565b50606082015161216b60608501826120da565b50608082015161217e60808501826120da565b5060a082015161219160a08501826120f4565b5060c08201516121a460c085018261210f565b50505050565b5f6121b5838361211e565b60e08301905092915050565b5f602082019050919050565b5f6121d7826120b1565b6121e181856120bb565b93506121ec836120cb565b805f5b8381101561221c57815161220388826121aa565b975061220e836121c1565b9250506001810190506121ef565b5085935050505092915050565b5f6020820190508181035f83015261224181846121cd565b905092915050565b5f60208201905061225c5f83018461207b565b92915050565b608082015f8201516122765f8501826120da565b50602082015161228960208501826120da565b50604082015161229c60408501826120f4565b5060608201516122af60608501826120da565b50505050565b5f6080820190506122c85f830184612262565b92915050565b5f5ffd5b6122db81611fcb565b81146122e5575f5ffd5b50565b5f813590506122f6816122d2565b92915050565b61230581612103565b811461230f575f5ffd5b50565b5f81359050612320816122fc565b92915050565b5f5f5f5f5f60a0868803121561233f5761233e6122ce565b5b5f61234c888289016122e8565b955050602061235d888289016122e8565b945050604061236e888289016122e8565b935050606061237f888289016122e8565b925050608061239088828901612312565b9150509295509295909350565b5f5f604083850312156123b3576123b26122ce565b5b5f6123c0858286016122e8565b92505060206123d1858286016122e8565b9150509250929050565b5f602082840312156123f0576123ef6122ce565b5b5f6123fd848285016122e8565b91505092915050565b5f6060820190506124195f83018661207b565b612426602083018561207b565b612433604083018461207b565b949350505050565b5f73ffffffffffffffffffffffffffffffffffffffff82169050919050565b5f6124648261243b565b9050919050565b6124748161245a565b811461247e575f5ffd5b50565b5f8135905061248f8161246b565b92915050565b5f602082840312156124aa576124a96122ce565b5b5f6124b784828501612481565b91505092915050565b6124c98161245a565b82525050565b5f6020820190506124e25f8301846124c0565b92915050565b6124f1816120e9565b82525050565b5f60208201905061250a5f8301846124e8565b92915050565b5f81519050919050565b5f82825260208201905092915050565b5f819050602082019050919050565b60a082015f82015161254d5f8501826120da565b50602082015161256060208501826120da565b50604082015161257360408501826120f4565b50606082015161258660608501826120da565b506080820151612599608085018261210f565b50505050565b5f6125aa8383612539565b60a08301905092915050565b5f602082019050919050565b5f6125cc82612510565b6125d6818561251a565b93506125e18361252a565b805f5b838110156126115781516125f8888261259f565b9750612603836125b6565b9250506001810190506125e4565b5085935050505092915050565b5f6020820190508181035f83015261263681846125c2565b905092915050565b612647816120e9565b8114612651575f5ffd5b50565b5f813590506126628161263e565b92915050565b5f5f5f5f608085870312156126805761267f6122ce565b5b5f61268d878288016122e8565b945050602061269e878288016122e8565b93505060406126af87828801612654565b92505060606126c087828801612312565b91505092959194509250565b5f5f5f5f608085870312156126e4576126e36122ce565b5b5f6126f1878288016122e8565b9450506020612702878288016122e8565b935050604061271387828801612654565b9250506060612724878288016122e8565b91505092959194509250565b5f82825260208201905092915050565b7f54726164696e67206973207061757365640000000000000000000000000000005f82015250565b5f612774601183612730565b915061277f82612740565b602082019050919050565b5f6020820190508181035f8301526127a181612768565b9050919050565b7f4461696c79207472616465206c696d69742072656163686564000000000000005f82015250565b5f6127dc601983612730565b91506127e7826127a8565b602082019050919050565b5f6020820190508181035f830152612809816127d0565b9050919050565b7f426f74206e6f74206163746976650000000000000000000000000000000000005f82015250565b5f612844600e83612730565b915061284f82612810565b602082019050919050565b5f6020820190508181035f83015261287181612838565b9050919050565b7f496e73756666696369656e742062616c616e63650000000000000000000000005f82015250565b5f6128ac601483612730565b91506128b782612878565b602082019050919050565b5f6020820190508181035f8301526128d9816128a0565b9050919050565b7f53746f702d6c6f7373206d7573742062652062656c6f7720656e7472790000005f82015250565b5f612914601d83612730565b915061291f826128e0565b602082019050919050565b5f6020820190508181035f83015261294181612908565b9050919050565b7f54616b652d70726f666974206d7573742062652061626f766520656e747279005f82015250565b5f61297c601f83612730565b915061298782612948565b602082019050919050565b5f6020820190508181035f8301526129a981612970565b9050919050565b5f6129ba82611fcb565b91506129c583611fcb565b92508282039050818111156129dd576129dc611fd4565b5b92915050565b6129ec81612103565b82525050565b5f608082019050612a055f83018761207b565b612a1260208301866129e3565b612a1f604083018561207b565b612a2c606083018461207b565b95945050505050565b7f496e76616c696420696e646578000000000000000000000000000000000000005f82015250565b5f612a69600d83612730565b9150612a7482612a35565b602082019050919050565b5f6020820190508181035f830152612a9681612a5d565b9050919050565b7f4e487b71000000000000000000000000000000000000000000000000000000005f52603260045260245ffd5b7f506f736974696f6e206e6f7420616374697665000000000000000000000000005f82015250565b5f612afe601383612730565b9150612b0982612aca565b602082019050919050565b5f6020820190508181035f830152612b2b81612af2565b9050919050565b5f612b3c82611fcb565b9150612b4783611fcb565b9250828202612b5581611fcb565b91508282048414831517612b6c57612b6b611fd4565b5b5092915050565b7f4e487b71000000000000000000000000000000000000000000000000000000005f52601260045260245ffd5b5f612baa82611fcb565b9150612bb583611fcb565b925082612bc557612bc4612b73565b5b828204905092915050565b5f819050919050565b5f612be382612bd0565b91507f80000000000000000000000000000000000000000000000000000000000000008203612c1557612c14611fd4565b5b815f039050919050565b5f612c2982612bd0565b9150612c3483612bd0565b92508282019050828112155f8312168382125f841215161715612c5a57612c59611fd4565b5b92915050565b612c6981612bd0565b82525050565b5f606082019050612c825f83018661207b565b612c8f60208301856129e3565b612c9c6040830184612c60565b949350505050565b5f81905092915050565b50565b5f612cbc5f83612ca4565b9150612cc782612cae565b5f82019050919050565b5f612cdb82612cb1565b9150819050919050565b7f5472616e73666572206661696c656400000000000000000000000000000000005f82015250565b5f612d19600f83612730565b9150612d2482612ce5565b602082019050919050565b5f6020820190508181035f830152612d4681612d0d565b9050919050565b7f4f6e6c79206f776e65722063616e2063616c6c207468697300000000000000005f82015250565b5f612d81601883612730565b9150612d8c82612d4d565b602082019050919050565b5f6020820190508181035f830152612dae81612d75565b9050919050565b7f4d757374206465706f736974206d6f7265207468616e203000000000000000005f82015250565b5f612de9601883612730565b9150612df482612db5565b602082019050919050565b5f6020820190508181035f830152612e1681612ddd565b9050919050565b7f456d657267656e6379207769746864726177206661696c6564000000000000005f82015250565b5f612e51601983612730565b9150612e5c82612e1d565b602082019050919050565b5f6020820190508181035f830152612e7e81612e45565b9050919050565b5f60a082019050612e985f83018861207b565b612ea560208301876124e8565b612eb260408301866129e3565b612ebf606083018561207b565b612ecc608083018461207b565b9695505050505050565b7f4d617820706f736974696f6e2073697a652069732031303025000000000000005f82015250565b5f612f0a601983612730565b9150612f1582612ed6565b602082019050919050565b5f6020820190508181035f830152612f3781612efe565b9050919050565b7f4d696e20636f6e666964656e63652069732031303025000000000000000000005f82015250565b5f612f72601683612730565b9150612f7d82612f3e565b602082019050919050565b5f6020820190508181035f830152612f9f81612f66565b9050919050565b7f4461696c79206c696d6974206d75737420626520706f736974697665000000005f82015250565b5f612fda601c83612730565b9150612fe582612fa6565b602082019050919050565b5f6020820190508181035f83015261300781612fce565b905091905056fea2646970667358221220a38d586b52afee22fbc6a66e455d69cb7da69c8a991e48ddc6126c30d3b7f3d664736f6c63430008210033","linkReferences":{}},"methodIdentifiers":{"closePosition(uint256,uint256)":"2d6ce61d","configureBotSettings(uint256,uint256,bool,uint256)":"ee017ea6","dailyTradeCount(address)":"67226973","deposit()":"d0e30db0","emergencyWithdraw()":"db2e21bc","executeTrade(uint256,uint256,bool,uint8)":"e6424c9f","getBalance()":"12065fe0","getBotConfig()":"15de4dfb","getOpenPositions()":"0fbac333","getPublicStats()":"2eaaf8f6","getTradeHistory()":"d251c05a","getUserBalance(address)":"47734892","isPaused()":"b187bd26","openPosition(uint256,uint256,uint256,uint256,uint8)":"1faba638","owner()":"8da5cb5b","pause()":"8456cb59","totalTrades()":"e275c997","totalUsers()":"bff1f9e1","unpause()":"3f4ba83a","withdraw(uint256)":"2e1a7d4d"},"id":0}