{"abi":[{"type":"constructor","inputs":[],"stateMutability":"nonpayable"},{"type":"function","name":"closePosition","inputs":[{"name":"positionIndex","type":"uint256","internalType":"uint256"},{"name":"currentPrice","type":"uint256","internalType":"uint256"}],"outputs":[],"stateMutability":"nonpayable"},{"type":"function","name":"configureBotSettings","inputs":[{"name":"maxPositionSize","type":"uint256","internalType":"uint256"},{"name":"dailyTradeLimit","type":"uint256","internalType":"uint256"},{"name":"isActive","type":"bool","internalType":"bool"},{"name":"minConfidence","type":"uint256","internalType":"uint256"}],"outputs":[],"stateMutability":"nonpayable"},{"type":"function","name":"dailyTradeCount","inputs":[{"name":"","type":"address","internalType":"address"}],"outputs":[{"name":"","type":"uint256","internalType":"uint256"}],"stateMutability":"view"},{"type":"function","name":"deposit","inputs":[],"outputs":[],"stateMutability":"payable"},{"type":"function","name":"executeTrade","inputs":[{"name":"amount","type":"uint256","internalType":"uint256"},{"name":"price","type":"uint256","internalType":"uint256"},{"name":"isBuy","type":"bool","internalType":"bool"},{"name":"coinId","type":"uint8","internalType":"uint8"}],"outputs":[],"stateMutability":"nonpayable"},{"type":"function","name":"getBalance","inputs":[],"outputs":[{"name":"","type":"uint256","internalType":"uint256"}],"stateMutability":"view"},{"type":"function","name":"getBotConfig","inputs":[],"outputs":[{"name":"","type":"tuple","internalType":"struct PrivateTradingBot.BotConfig","components":[{"name":"maxPositionSize","type":"suint256","internalType":"suint256"},{"name":"dailyTradeLimit","type":"suint256","internalType":"suint256"},{"name":"isActive","type":"sbool","internalType":"sbool"},{"name":"minConfidence","type":"suint256","internalType":"suint256"}]}],"stateMutability":"view"},{"type":"function","name":"getOpenPositions","inputs":[],"outputs":[{"name":"","type":"tuple[]","internalType":"struct PrivateTradingBot.Position[]","components":[{"name":"entryPrice","type":"suint256","internalType":"suint256"},{"name":"amount","type":"suint256","internalType":"suint256"},{"name":"stopLoss","type":"suint256","internalType":"suint256"},{"name":"takeProfit","type":"suint256","internalType":"suint256"},{"name":"openedAt","type":"uint256","internalType":"uint256"},{"name":"isActive","type":"sbool","internalType":"sbool"},{"name":"coinId","type":"suint8","internalType":"suint8"}]}],"stateMutability":"view"},{"type":"function","name":"getPublicStats","inputs":[],"outputs":[{"name":"stats","type":"uint256[3]","internalType":"uint256[3]"}],"stateMutability":"view"},{"type":"function","name":"getTradeHistory","inputs":[],"outputs":[{"name":"","type":"tuple[]","internalType":"struct PrivateTradingBot.Trade[]","components":[{"name":"amount","type":"suint256","internalType":"suint256"},{"name":"price","type":"suint256","internalType":"suint256"},{"name":"isBuy","type":"sbool","internalType":"sbool"},{"name":"timestamp","type":"uint256","internalType":"uint256"},{"name":"coinId","type":"suint8","internalType":"suint8"}]}],"stateMutability":"view"},{"type":"function","name":"isPaused","inputs":[],"outputs":[{"name":"","type":"bool","internalType":"bool"}],"stateMutability":"view"},{"type":"function","name":"openPosition","inputs":[{"name":"amount","type":"uint256","internalType":"uint256"},{"name":"entryPrice","type":"uint256","internalType":"uint256"},{"name":"stopLoss","type":"uint256","internalType":"uint256"},{"name":"takeProfit","type":"uint256","internalType":"uint256"},{"name":"coinId","type":"uint8","internalType":"uint8"}],"outputs":[],"stateMutability":"nonpayable"},{"type":"function","name":"owner","inputs":[],"outputs":[{"name":"","type":"address","internalType":"address"}],"stateMutability":"view"},{"type":"function","name":"pause","inputs":[],"outputs":[],"stateMutability":"nonpayable"},{"type":"function","name":"totalTrades","inputs":[],"outputs":[{"name":"","type":"uint256","internalType":"uint256"}],"stateMutability":"view"},{"type":"function","name":"totalUsers","inputs":[],"outputs":[{"name":"","type":"uint256","internalType":"uint256"}],"stateMutability":"view"},{"type":"function","name":"unpause","inputs":[],"outputs":[],"stateMutability":"nonpayable"},{"type":"function","name":"withdraw","inputs":[{"name":"amount","type":"uint256","internalType":"uint256"}],"outputs":[],"stateMutability":"nonpayable"},{"type":"event","name":"BotConfigured","inputs":[{"name":"user","type":"address","indexed":true,"internalType":"address"},{"name":"timestamp","type":"uint256","indexed":false,"internalType":"uint256"}],"anonymous":false},{"type":"event","name":"Deposit","inputs":[{"name":"user","type":"address","indexed":true,"internalType":"address"},{"name":"timestamp","type":"uint256","indexed":false,"internalType":"uint256"}],"anonymous":false},{"type":"event","name":"PositionClosed","inputs":[{"name":"user","type":"address","indexed":true,"internalType":"address"},{"name":"timestamp","type":"uint256","indexed":false,"internalType":"uint256"},{"name":"coinId","type":"uint8","indexed":false,"internalType":"uint8"}],"anonymous":false},{"type":"event","name":"TradeExecuted","inputs":[{"name":"user","type":"address","indexed":true,"internalType":"address"},{"name":"timestamp","type":"uint256","indexed":false,"internalType":"uint256"},{"name":"isBuy","type":"bool","indexed":false,"internalType":"bool"},{"name":"coinId","type":"uint8","indexed":false,"internalType":"uint8"}],"anonymous":false},{"type":"event","name":"Withdrawal","inputs":[{"name":"user","type":"address","indexed":true,"internalType":"address"},{"name":"timestamp","type":"uint256","indexed":false,"internalType":"uint256"}],"anonymous":false}],"bytecode":{"object":"0x6080604052348015600e575f5ffd5b503360065f6101000a81548173ffffffffffffffffffffffffffffffffffffffff021916908373ffffffffffffffffffffffffffffffffffffffff1602179055505f600660146101000a81548160ff021916908315150217905550612b52806100765f395ff3fe608060405260043610610108575f3560e01c80638456cb5911610094578063d0e30db011610063578063d0e30db014610312578063d251c05a1461031c578063e275c99714610346578063e6424c9f14610370578063ee017ea61461039857610108565b80638456cb591461027e5780638da5cb5b14610294578063b187bd26146102be578063bff1f9e1146102e857610108565b80632d6ce61d116100db5780632d6ce61d146101b25780632e1a7d4d146101da5780632eaaf8f6146102025780633f4ba83a1461022c578063672269731461024257610108565b80630fbac3331461010c57806312065fe01461013657806315de4dfb146101605780631faba6381461018a575b5f5ffd5b348015610117575f5ffd5b506101206103c0565b60405161012d9190611ce2565b60405180910390f35b348015610141575f5ffd5b5061014a6104a6565b6040516101579190611d11565b60405180910390f35b34801561016b575f5ffd5b506101746104e9565b6040516101819190611d7d565b60405180910390f35b348015610195575f5ffd5b506101b060048036038101906101ab9190611dfa565b610569565b005b3480156101bd575f5ffd5b506101d860048036038101906101d39190611e71565b610a2a565b005b3480156101e5575f5ffd5b5061020060048036038101906101fb9190611eaf565b610d11565b005b34801561020d575f5ffd5b50610216610f2b565b6040516102239190611f70565b60405180910390f35b348015610237575f5ffd5b50610240610fd0565b005b34801561024d575f5ffd5b5061026860048036038101906102639190611fe3565b61107b565b6040516102759190611d11565b60405180910390f35b348015610289575f5ffd5b50610292611090565b005b34801561029f575f5ffd5b506102a861113c565b6040516102b5919061201d565b60405180910390f35b3480156102c9575f5ffd5b506102d2611161565b6040516102df9190612050565b60405180910390f35b3480156102f3575f5ffd5b506102fc611174565b6040516103099190611d11565b60405180910390f35b61031a61117a565b005b348015610327575f5ffd5b50610330611344565b60405161033d9190612177565b60405180910390f35b348015610351575f5ffd5b5061035a611416565b6040516103679190611d11565b60405180910390f35b34801561037b575f5ffd5b50610396600480360381019061039191906121c1565b61141c565b005b3480156103a3575f5ffd5b506103be60048036038101906103b99190612225565b6118a6565b005b606060025f3373ffffffffffffffffffffffffffffffffffffffff1673ffffffffffffffffffffffffffffffffffffffff1681526020019081526020015f20805480602002602001604051908101604052809291908181526020015f905b8282101561049d578382905f5260205f2090600702016040518060e00160405290815f8201b0815260200160018201b0815260200160028201b0815260200160038201b081526020016004820154815260200160058201b015151515815260200160068201b060ff1660ff16815250508152602001906001019061041e565b50505050905090565b5f5f5f3373ffffffffffffffffffffffffffffffffffffffff1673ffffffffffffffffffffffffffffffffffffffff1681526020019081526020015f20b0905090565b6104f1611b01565b60035f3373ffffffffffffffffffffffffffffffffffffffff1673ffffffffffffffffffffffffffffffffffffffff1681526020019081526020015f206040518060800160405290815f8201b0815260200160018201b0815260200160028201b015151515815260200160038201b081525050905090565b600660149054906101000a900460ff16156105b9576040517f08c379a00000000000000000000000000000000000000000000000000000000081526004016105b0906122e3565b60405180910390fd5b6105c1611a0f565b5f60035f3373ffffffffffffffffffffffffffffffffffffffff1673ffffffffffffffffffffffffffffffffffffffff1681526020019081526020015f206040518060800160405290815f8201b0815260200160018201b0815260200160028201b015151515815260200160038201b0815250509050806020015160045f3373ffffffffffffffffffffffffffffffffffffffff1673ffffffffffffffffffffffffffffffffffffffff1681526020019081526020015f2054106106ba576040517f08c379a00000000000000000000000000000000000000000000000000000000081526004016106b19061234b565b60405180910390fd5b5f60035f3373ffffffffffffffffffffffffffffffffffffffff1673ffffffffffffffffffffffffffffffffffffffff1681526020019081526020015f206040518060800160405290815f8201b0815260200160018201b0815260200160028201b015151515815260200160038201b08152505090508060400151610774576040517f08c379a000000000000000000000000000000000000000000000000000000000815260040161076b906123b3565b60405180910390fd5b5f5f5f3373ffffffffffffffffffffffffffffffffffffffff1673ffffffffffffffffffffffffffffffffffffffff1681526020019081526020015f20b09050878110156107f7576040517f08c379a00000000000000000000000000000000000000000000000000000000081526004016107ee9061241b565b60405180910390fd5b868610610839576040517f08c379a000000000000000000000000000000000000000000000000000000000815260040161083090612483565b60405180910390fd5b86851161087b576040517f08c379a0000000000000000000000000000000000000000000000000000000008152600401610872906124eb565b60405180910390fd5b5f6040518060e001604052808981526020018a81526020018881526020018781526020014281526020016001151581526020018660ff16815250905060025f3373ffffffffffffffffffffffffffffffffffffffff1673ffffffffffffffffffffffffffffffffffffffff1681526020019081526020015f2081908060018154018082558091505060019003905f5260205f2090600702015f909190919091505f820151815f01b1602082015181600101b1604082015181600201b1606082015181600301b16080820151816004015560a08201518160050190151590b160c0820151816006019060ff1690b1505088826109769190612536565b5f5f3373ffffffffffffffffffffffffffffffffffffffff1673ffffffffffffffffffffffffffffffffffffffff1681526020019081526020015f208190b15060045f3373ffffffffffffffffffffffffffffffffffffffff1673ffffffffffffffffffffffffffffffffffffffff1681526020019081526020015f205f815480929190610a0390612569565b919050555060085f815480929190610a1a90612569565b9190505550505050505050505050565b600660149054906101000a900460ff1615610a7a576040517f08c379a0000000000000000000000000000000000000000000000000000000008152600401610a71906122e3565b60405180910390fd5b60025f3373ffffffffffffffffffffffffffffffffffffffff1673ffffffffffffffffffffffffffffffffffffffff1681526020019081526020015f20805490508210610afc576040517f08c379a0000000000000000000000000000000000000000000000000000000008152600401610af3906125fa565b60405180910390fd5b5f60025f3373ffffffffffffffffffffffffffffffffffffffff1673ffffffffffffffffffffffffffffffffffffffff1681526020019081526020015f208381548110610b4c57610b4b612618565b5b905f5260205f209060070201905080600501b0610b9e576040517f08c379a0000000000000000000000000000000000000000000000000000000008152600401610b959061268f565b60405180910390fd5b5f815f01b090505f82600101b090505f82851115610bdf5782828487610bc49190612536565b610bce91906126ad565b610bd8919061271b565b9050610c0d565b82828685610bed9190612536565b610bf791906126ad565b610c01919061271b565b610c0a90612754565b90505b5f8183610c1a919061279a565b90505f5f5f3373ffffffffffffffffffffffffffffffffffffffff1673ffffffffffffffffffffffffffffffffffffffff1681526020019081526020015f20b090508181610c6891906127db565b5f5f3373ffffffffffffffffffffffffffffffffffffffff1673ffffffffffffffffffffffffffffffffffffffff1681526020019081526020015f208190b1505f8660050181151590b1503373ffffffffffffffffffffffffffffffffffffffff167fa05e68ef5d680fab97e2f5a6736a2bfed6fbd6056415ac82d743caeb53b702224288600601b0604051610cff92919061281d565b60405180910390a25050505050505050565b600660149054906101000a900460ff1615610d61576040517f08c379a0000000000000000000000000000000000000000000000000000000008152600401610d58906122e3565b60405180910390fd5b5f5f5f3373ffffffffffffffffffffffffffffffffffffffff1673ffffffffffffffffffffffffffffffffffffffff1681526020019081526020015f20b0905081811015610de4576040517f08c379a0000000000000000000000000000000000000000000000000000000008152600401610ddb9061241b565b60405180910390fd5b8181610df09190612536565b5f5f3373ffffffffffffffffffffffffffffffffffffffff1673ffffffffffffffffffffffffffffffffffffffff1681526020019081526020015f208190b1505f3373ffffffffffffffffffffffffffffffffffffffff1683604051610e5590612871565b5f6040518083038185875af1925050503d805f8114610e8f576040519150601f19603f3d011682016040523d82523d5f602084013e610e94565b606091505b5050905080610ed8576040517f08c379a0000000000000000000000000000000000000000000000000000000008152600401610ecf906128cf565b60405180910390fd5b3373ffffffffffffffffffffffffffffffffffffffff167f7fcf532c15f0a6db0bd6d0e038bea71d30d808c7d98cb3bf7268a95bf5081b6542604051610f1e9190611d11565b60405180910390a2505050565b610f33611b27565b600754815f60038110610f4957610f48612618565b5b60200201818152505060085481600160038110610f6957610f68612618565b5b60200201818152505060045f3373ffffffffffffffffffffffffffffffffffffffff1673ffffffffffffffffffffffffffffffffffffffff1681526020019081526020015f205481600260038110610fc457610fc3612618565b5b60200201818152505090565b60065f9054906101000a900473ffffffffffffffffffffffffffffffffffffffff1673ffffffffffffffffffffffffffffffffffffffff163373ffffffffffffffffffffffffffffffffffffffff161461105f576040517f08c379a000000000000000000000000000000000000000000000000000000000815260040161105690612937565b60405180910390fd5b5f600660146101000a81548160ff021916908315150217905550565b6004602052805f5260405f205f915090505481565b60065f9054906101000a900473ffffffffffffffffffffffffffffffffffffffff1673ffffffffffffffffffffffffffffffffffffffff163373ffffffffffffffffffffffffffffffffffffffff161461111f576040517f08c379a000000000000000000000000000000000000000000000000000000000815260040161111690612937565b60405180910390fd5b6001600660146101000a81548160ff021916908315150217905550565b60065f9054906101000a900473ffffffffffffffffffffffffffffffffffffffff1681565b600660149054906101000a900460ff1681565b60075481565b600660149054906101000a900460ff16156111ca576040517f08c379a00000000000000000000000000000000000000000000000000000000081526004016111c1906122e3565b60405180910390fd5b5f341161120c576040517f08c379a00000000000000000000000000000000000000000000000000000000081526004016112039061299f565b60405180910390fd5b5f349050805f5f3373ffffffffffffffffffffffffffffffffffffffff1673ffffffffffffffffffffffffffffffffffffffff1681526020019081526020015f20b061125891906129bd565b5f5f3373ffffffffffffffffffffffffffffffffffffffff1673ffffffffffffffffffffffffffffffffffffffff1681526020019081526020015f208190b150345f5f3373ffffffffffffffffffffffffffffffffffffffff1673ffffffffffffffffffffffffffffffffffffffff1681526020019081526020015f20b0036112f35760075f8154809291906112ed90612569565b91905055505b3373ffffffffffffffffffffffffffffffffffffffff167fe1fffcc4923d04b559f4d29a8bfc6cda04eb5b0d3c460751c2402c5c5cc9109c426040516113399190611d11565b60405180910390a250565b606060015f3373ffffffffffffffffffffffffffffffffffffffff1673ffffffffffffffffffffffffffffffffffffffff1681526020019081526020015f20805480602002602001604051908101604052809291908181526020015f905b8282101561140d578382905f5260205f2090600502016040518060a00160405290815f8201b0815260200160018201b0815260200160028201b01515151581526020016003820154815260200160048201b060ff1660ff1681525050815260200190600101906113a2565b50505050905090565b60085481565b600660149054906101000a900460ff161561146c576040517f08c379a0000000000000000000000000000000000000000000000000000000008152600401611463906122e3565b60405180910390fd5b611474611a0f565b5f60035f3373ffffffffffffffffffffffffffffffffffffffff1673ffffffffffffffffffffffffffffffffffffffff1681526020019081526020015f206040518060800160405290815f8201b0815260200160018201b0815260200160028201b015151515815260200160038201b0815250509050806020015160045f3373ffffffffffffffffffffffffffffffffffffffff1673ffffffffffffffffffffffffffffffffffffffff1681526020019081526020015f20541061156d576040517f08c379a00000000000000000000000000000000000000000000000000000000081526004016115649061234b565b60405180910390fd5b5f60035f3373ffffffffffffffffffffffffffffffffffffffff1673ffffffffffffffffffffffffffffffffffffffff1681526020019081526020015f206040518060800160405290815f8201b0815260200160018201b0815260200160028201b015151515815260200160038201b08152505090508060400151611627576040517f08c379a000000000000000000000000000000000000000000000000000000000815260040161161e906123b3565b60405180910390fd5b5f5f5f3373ffffffffffffffffffffffffffffffffffffffff1673ffffffffffffffffffffffffffffffffffffffff1681526020019081526020015f20b09050868110156116aa576040517f08c379a00000000000000000000000000000000000000000000000000000000081526004016116a19061241b565b60405180910390fd5b5f6040518060a0016040528089815260200188815260200187151581526020014281526020018660ff16815250905060015f3373ffffffffffffffffffffffffffffffffffffffff1673ffffffffffffffffffffffffffffffffffffffff1681526020019081526020015f2081908060018154018082558091505060019003905f5260205f2090600502015f909190919091505f820151815f01b1602082015181600101b160408201518160020190151590b1606082015181600301556080820151816004019060ff1690b150505f6103e889611787919061271b565b8961179291906127db565b905080836117a09190612536565b5f5f3373ffffffffffffffffffffffffffffffffffffffff1673ffffffffffffffffffffffffffffffffffffffff1681526020019081526020015f208190b15060045f3373ffffffffffffffffffffffffffffffffffffffff1673ffffffffffffffffffffffffffffffffffffffff1681526020019081526020015f205f81548092919061182d90612569565b919050555060085f81548092919061184490612569565b91905055503373ffffffffffffffffffffffffffffffffffffffff167fbee694e74d7addbb38951ae21d22561e6db989308959c7beabbf683425eca906428989604051611893939291906129f0565b60405180910390a2505050505050505050565b60648411156118ea576040517f08c379a00000000000000000000000000000000000000000000000000000000081526004016118e190612a6f565b60405180910390fd5b606481111561192e576040517f08c379a000000000000000000000000000000000000000000000000000000000815260040161192590612ad7565b60405180910390fd5b604051806080016040528085815260200184815260200183151581526020018281525060035f3373ffffffffffffffffffffffffffffffffffffffff1673ffffffffffffffffffffffffffffffffffffffff1681526020019081526020015f205f820151815f01b1602082015181600101b160408201518160020190151590b1606082015181600301b19050503373ffffffffffffffffffffffffffffffffffffffff167fbdc8fdb0e2700e6e44dc7e3e10e8ff6e6aa04b212185417c1b53440988e2d0c542604051611a019190611d11565b60405180910390a250505050565b5f6201518042611a1f919061271b565b90505f6201518060055f3373ffffffffffffffffffffffffffffffffffffffff1673ffffffffffffffffffffffffffffffffffffffff1681526020019081526020015f2054611a6e919061271b565b905080821115611afd575f60045f3373ffffffffffffffffffffffffffffffffffffffff1673ffffffffffffffffffffffffffffffffffffffff1681526020019081526020015f20819055504260055f3373ffffffffffffffffffffffffffffffffffffffff1673ffffffffffffffffffffffffffffffffffffffff1681526020019081526020015f20819055505b5050565b60405180608001604052805f81526020015f81526020015f151581526020015f81525090565b6040518060600160405280600390602082028036833780820191505090505090565b5f81519050919050565b5f82825260208201905092915050565b5f819050602082019050919050565b5f819050919050565b611b8481611b72565b82525050565b5f819050919050565b611b9c81611b8a565b82525050565b5f8115159050919050565b611bb681611ba2565b82525050565b5f60ff82169050919050565b611bd181611bbc565b82525050565b60e082015f820151611beb5f850182611b7b565b506020820151611bfe6020850182611b7b565b506040820151611c116040850182611b7b565b506060820151611c246060850182611b7b565b506080820151611c376080850182611b93565b5060a0820151611c4a60a0850182611bad565b5060c0820151611c5d60c0850182611bc8565b50505050565b5f611c6e8383611bd7565b60e08301905092915050565b5f602082019050919050565b5f611c9082611b49565b611c9a8185611b53565b9350611ca583611b63565b805f5b83811015611cd5578151611cbc8882611c63565b9750611cc783611c7a565b925050600181019050611ca8565b5085935050505092915050565b5f6020820190508181035f830152611cfa8184611c86565b905092915050565b611d0b81611b8a565b82525050565b5f602082019050611d245f830184611d02565b92915050565b608082015f820151611d3e5f850182611b7b565b506020820151611d516020850182611b7b565b506040820151611d646040850182611bad565b506060820151611d776060850182611b7b565b50505050565b5f608082019050611d905f830184611d2a565b92915050565b5f5ffd5b611da381611b8a565b8114611dad575f5ffd5b50565b5f81359050611dbe81611d9a565b92915050565b5f60ff82169050919050565b611dd981611dc4565b8114611de3575f5ffd5b50565b5f81359050611df481611dd0565b92915050565b5f5f5f5f5f60a08688031215611e1357611e12611d96565b5b5f611e2088828901611db0565b9550506020611e3188828901611db0565b9450506040611e4288828901611db0565b9350506060611e5388828901611db0565b9250506080611e6488828901611de6565b9150509295509295909350565b5f5f60408385031215611e8757611e86611d96565b5b5f611e9485828601611db0565b9250506020611ea585828601611db0565b9150509250929050565b5f60208284031215611ec457611ec3611d96565b5b5f611ed184828501611db0565b91505092915050565b5f60039050919050565b5f81905092915050565b5f819050919050565b5f611f028383611b93565b60208301905092915050565b5f602082019050919050565b611f2381611eda565b611f2d8184611ee4565b9250611f3882611eee565b805f5b83811015611f68578151611f4f8782611ef7565b9650611f5a83611f0e565b925050600181019050611f3b565b505050505050565b5f606082019050611f835f830184611f1a565b92915050565b5f73ffffffffffffffffffffffffffffffffffffffff82169050919050565b5f611fb282611f89565b9050919050565b611fc281611fa8565b8114611fcc575f5ffd5b50565b5f81359050611fdd81611fb9565b92915050565b5f60208284031215611ff857611ff7611d96565b5b5f61200584828501611fcf565b91505092915050565b61201781611fa8565b82525050565b5f6020820190506120305f83018461200e565b92915050565b5f8115159050919050565b61204a81612036565b82525050565b5f6020820190506120635f830184612041565b92915050565b5f81519050919050565b5f82825260208201905092915050565b5f819050602082019050919050565b60a082015f8201516120a65f850182611b7b565b5060208201516120b96020850182611b7b565b5060408201516120cc6040850182611bad565b5060608201516120df6060850182611b93565b5060808201516120f26080850182611bc8565b50505050565b5f6121038383612092565b60a08301905092915050565b5f602082019050919050565b5f61212582612069565b61212f8185612073565b935061213a83612083565b805f5b8381101561216a57815161215188826120f8565b975061215c8361210f565b92505060018101905061213d565b5085935050505092915050565b5f6020820190508181035f83015261218f818461211b565b905092915050565b6121a081612036565b81146121aa575f5ffd5b50565b5f813590506121bb81612197565b92915050565b5f5f5f5f608085870312156121d9576121d8611d96565b5b5f6121e687828801611db0565b94505060206121f787828801611db0565b9350506040612208878288016121ad565b925050606061221987828801611de6565b91505092959194509250565b5f5f5f5f6080858703121561223d5761223c611d96565b5b5f61224a87828801611db0565b945050602061225b87828801611db0565b935050604061226c878288016121ad565b925050606061227d87828801611db0565b91505092959194509250565b5f82825260208201905092915050565b7f54726164696e67206973207061757365640000000000000000000000000000005f82015250565b5f6122cd601183612289565b91506122d882612299565b602082019050919050565b5f6020820190508181035f8301526122fa816122c1565b9050919050565b7f4461696c79207472616465206c696d69742072656163686564000000000000005f82015250565b5f612335601983612289565b915061234082612301565b602082019050919050565b5f6020820190508181035f83015261236281612329565b9050919050565b7f426f74206e6f74206163746976650000000000000000000000000000000000005f82015250565b5f61239d600e83612289565b91506123a882612369565b602082019050919050565b5f6020820190508181035f8301526123ca81612391565b9050919050565b7f496e73756666696369656e742062616c616e63650000000000000000000000005f82015250565b5f612405601483612289565b9150612410826123d1565b602082019050919050565b5f6020820190508181035f830152612432816123f9565b9050919050565b7f53746f702d6c6f7373206d7573742062652062656c6f7720656e7472790000005f82015250565b5f61246d601d83612289565b915061247882612439565b602082019050919050565b5f6020820190508181035f83015261249a81612461565b9050919050565b7f54616b652d70726f666974206d7573742062652061626f766520656e747279005f82015250565b5f6124d5601f83612289565b91506124e0826124a1565b602082019050919050565b5f6020820190508181035f830152612502816124c9565b9050919050565b7f4e487b71000000000000000000000000000000000000000000000000000000005f52601160045260245ffd5b5f61254082611b8a565b915061254b83611b8a565b925082820390508181111561256357612562612509565b5b92915050565b5f61257382611b8a565b91507fffffffffffffffffffffffffffffffffffffffffffffffffffffffffffffffff82036125a5576125a4612509565b5b600182019050919050565b7f496e76616c696420696e646578000000000000000000000000000000000000005f82015250565b5f6125e4600d83612289565b91506125ef826125b0565b602082019050919050565b5f6020820190508181035f830152612611816125d8565b9050919050565b7f4e487b71000000000000000000000000000000000000000000000000000000005f52603260045260245ffd5b7f506f736974696f6e206e6f7420616374697665000000000000000000000000005f82015250565b5f612679601383612289565b915061268482612645565b602082019050919050565b5f6020820190508181035f8301526126a68161266d565b9050919050565b5f6126b782611b8a565b91506126c283611b8a565b92508282026126d081611b8a565b915082820484148315176126e7576126e6612509565b5b5092915050565b7f4e487b71000000000000000000000000000000000000000000000000000000005f52601260045260245ffd5b5f61272582611b8a565b915061273083611b8a565b9250826127405761273f6126ee565b5b828204905092915050565b5f819050919050565b5f61275e8261274b565b91507f800000000000000000000000000000000000000000000000000000000000000082036127905761278f612509565b5b815f039050919050565b5f6127a48261274b565b91506127af8361274b565b92508282019050828112155f8312168382125f8412151617156127d5576127d4612509565b5b92915050565b5f6127e582611b8a565b91506127f083611b8a565b925082820190508082111561280857612807612509565b5b92915050565b61281781611dc4565b82525050565b5f6040820190506128305f830185611d02565b61283d602083018461280e565b9392505050565b5f81905092915050565b50565b5f61285c5f83612844565b91506128678261284e565b5f82019050919050565b5f61287b82612851565b9150819050919050565b7f5472616e73666572206661696c656400000000000000000000000000000000005f82015250565b5f6128b9600f83612289565b91506128c482612885565b602082019050919050565b5f6020820190508181035f8301526128e6816128ad565b9050919050565b7f4f6e6c79206f776e65722063616e2063616c6c207468697300000000000000005f82015250565b5f612921601883612289565b915061292c826128ed565b602082019050919050565b5f6020820190508181035f83015261294e81612915565b9050919050565b7f4d757374206465706f736974206d6f7265207468616e203000000000000000005f82015250565b5f612989601883612289565b915061299482612955565b602082019050919050565b5f6020820190508181035f8301526129b68161297d565b9050919050565b5f6129c782611b72565b91506129d283611b72565b92508282019050808211156129ea576129e9612509565b5b92915050565b5f606082019050612a035f830186611d02565b612a106020830185612041565b612a1d604083018461280e565b949350505050565b7f4d617820706f736974696f6e2073697a652069732031303025000000000000005f82015250565b5f612a59601983612289565b9150612a6482612a25565b602082019050919050565b5f6020820190508181035f830152612a8681612a4d565b9050919050565b7f4d696e20636f6e666964656e63652069732031303025000000000000000000005f82015250565b5f612ac1601683612289565b9150612acc82612a8d565b602082019050919050565b5f6020820190508181035f830152612aee81612ab5565b905091905056fea2646970667358221220772b3b366be5dbc14fe42981140157868993fb58c4f1c6b7aae61a787c4c8a5a64736f6c637829302e382e33312d646576656c6f702e323032352e31312e31322b636f6d6d69742e3637366264656363005a","linkReferences":{}},"methodIdentifiers":{"closePosition(uint256,uint256)":"2d6ce61d","configureBotSettings(uint256,uint256,bool,uint256)":"ee017ea6","dailyTradeCount(address)":"67226973","deposit()":"d0e30db0","executeTrade(uint256,uint256,bool,uint8)":"e6424c9f","getBalance()":"12065fe0","getBotConfig()":"15de4dfb","getOpenPositions()":"0fbac333","getPublicStats()":"2eaaf8f6","getTradeHistory()":"d251c05a","isPaused()":"b187bd26","openPosition(uint256,uint256,uint256,uint256,uint8)":"1faba638","owner()":"8da5cb5b","pause()":"8456cb59","totalTrades()":"e275c997","totalUsers()":"bff1f9e1","unpause()":"3f4ba83a","withdraw(uint256)":"2e1a7d4d"},"id":21}