{"abi":[{"type":"constructor","inputs":[],"stateMutability":"nonpayable"},{"type":"receive","stateMutability":"payable"},{"type":"function","name":"closePosition","inputs":[{"name":"positionIndex","type":"uint256","internalType":"uint256"},{"name":"currentPrice","type":"uint256","internalType":"uint256"}],"outputs":[],"stateMutability":"nonpayable"},{"type":"function","name":"configureBotSettings","inputs":[{"name":"maxPositionSize","type":"uint256","internalType":"uint256"},{"name":"dailyTradeLimit","type":"uint256","internalType":"uint256"},{"name":"isActive","type":"bool","internalType":"bool"},{"name":"minConfidence","type":"uint256","internalType":"uint256"}],"outputs":[],"stateMutability":"nonpayable"},{"type":"function","name":"dailyTradeCount","inputs":[{"name":"","type":"address","internalType":"address"}],"outputs":[{"name":"","type":"uint256","internalType":"uint256"}],"stateMutability":"view"},{"type":"function","name":"deposit","inputs":[],"outputs":[],"stateMutability":"payable"},{"type":"function","name":"emergencyWithdraw","inputs":[],"outputs":[],"stateMutability":"nonpayable"},{"type":"function","name":"executeTrade","inputs":[{"name":"amount","type":"uint256","internalType":"uint256"},{"name":"price","type":"uint256","internalType":"uint256"},{"name":"isBuy","type":"bool","internalType":"bool"},{"name":"coinId","type":"uint8","internalType":"uint8"}],"outputs":[],"stateMutability":"nonpayable"},{"type":"function","name":"getBalance","inputs":[],"outputs":[{"name":"","type":"uint256","internalType":"uint256"}],"stateMutability":"view"},{"type":"function","name":"getBotConfig","inputs":[],"outputs":[{"name":"","type":"tuple","internalType":"struct PrivateTradingBot.BotConfig","components":[{"name":"maxPositionSize","type":"uint256","internalType":"uint256"},{"name":"dailyTradeLimit","type":"uint256","internalType":"uint256"},{"name":"isActive","type":"bool","internalType":"bool"},{"name":"minConfidence","type":"uint256","internalType":"uint256"}]}],"stateMutability":"view"},{"type":"function","name":"getOpenPositions","inputs":[],"outputs":[{"name":"","type":"tuple[]","internalType":"struct PrivateTradingBot.Position[]","components":[{"name":"entryPrice","type":"uint256","internalType":"uint256"},{"name":"amount","type":"uint256","internalType":"uint256"},{"name":"stopLoss","type":"uint256","internalType":"uint256"},{"name":"takeProfit","type":"uint256","internalType":"uint256"},{"name":"openedAt","type":"uint256","internalType":"uint256"},{"name":"isActive","type":"bool","internalType":"bool"},{"name":"coinId","type":"uint8","internalType":"uint8"}]}],"stateMutability":"view"},{"type":"function","name":"getPublicStats","inputs":[],"outputs":[{"name":"users","type":"uint256","internalType":"uint256"},{"name":"trades","type":"uint256","internalType":"uint256"},{"name":"userDailyTrades","type":"uint256","internalType":"uint256"}],"stateMutability":"view"},{"type":"function","name":"getTradeHistory","inputs":[],"outputs":[{"name":"","type":"tuple[]","internalType":"struct PrivateTradingBot.Trade[]","components":[{"name":"amount","type":"uint256","internalType":"uint256"},{"name":"price","type":"uint256","internalType":"uint256"},{"name":"isBuy","type":"bool","internalType":"bool"},{"name":"timestamp","type":"uint256","internalType":"uint256"},{"name":"coinId","type":"uint8","internalType":"uint8"}]}],"stateMutability":"view"},{"type":"function","name":"getUserBalance","inputs":[{"name":"user","type":"address","internalType":"address"}],"outputs":[{"name":"","type":"uint256","internalType":"uint256"}],"stateMutability":"view"},{"type":"function","name":"isPaused","inputs":[],"outputs":[{"name":"","type":"bool","internalType":"bool"}],"stateMutability":"view"},{"type":"function","name":"openPosition","inputs":[{"name":"amount","type":"uint256","internalType":"uint256"},{"name":"entryPrice","type":"uint256","internalType":"uint256"},{"name":"stopLoss","type":"uint256","internalType":"uint256"},{"name":"takeProfit","type":"uint256","internalType":"uint256"},{"name":"coinId","type":"uint8","internalType":"uint8"}],"outputs":[],"stateMutability":"nonpayable"},{"type":"function","name":"owner","inputs":[],"outputs":[{"name":"","type":"address","internalType":"address"}],"stateMutability":"view"},{"type":"function","name":"pause","inputs":[],"outputs":[],"stateMutability":"nonpayable"},{"type":"function","name":"totalTrades","inputs":[],"outputs":[{"name":"","type":"uint256","internalType":"uint256"}],"stateMutability":"view"},{"type":"function","name":"totalUsers","inputs":[],"outputs":[{"name":"","type":"uint256","internalType":"uint256"}],"stateMutability":"view"},{"type":"function","name":"unpause","inputs":[],"outputs":[],"stateMutability":"nonpayable"},{"type":"function","name":"withdraw","inputs":[{"name":"amount","type":"uint256","internalType":"uint256"}],"outputs":[],"stateMutability":"nonpayable"},{"type":"event","name":"BotConfigured","inputs":[{"name":"user","type":"address","indexed":true,"internalType":"address"},{"name":"timestamp","type":"uint256","indexed":false,"internalType":"uint256"}],"anonymous":false},{"type":"event","name":"Deposit","inputs":[{"name":"user","type":"address","indexed":true,"internalType":"address"},{"name":"amount","type":"uint256","indexed":false,"internalType":"uint256"},{"name":"timestamp","type":"uint256","indexed":false,"internalType":"uint256"}],"anonymous":false},{"type":"event","name":"PositionClosed","inputs":[{"name":"user","type":"address","indexed":true,"internalType":"address"},{"name":"timestamp","type":"uint256","indexed":false,"internalType":"uint256"},{"name":"coinId","type":"uint8","indexed":false,"internalType":"uint8"},{"name":"pnl","type":"int256","indexed":false,"internalType":"int256"}],"anonymous":false},{"type":"event","name":"PositionOpened","inputs":[{"name":"user","type":"address","indexed":true,"internalType":"address"},{"name":"timestamp","type":"uint256","indexed":false,"internalType":"uint256"},{"name":"coinId","type":"uint8","indexed":false,"internalType":"uint8"},{"name":"amount","type":"uint256","indexed":false,"internalType":"uint256"},{"name":"entryPrice","type":"uint256","indexed":false,"internalType":"uint256"}],"anonymous":false},{"type":"event","name":"TradeExecuted","inputs":[{"name":"user","type":"address","indexed":true,"internalType":"address"},{"name":"timestamp","type":"uint256","indexed":false,"internalType":"uint256"},{"name":"isBuy","type":"bool","indexed":false,"internalType":"bool"},{"name":"coinId","type":"uint8","indexed":false,"internalType":"uint8"},{"name":"amount","type":"uint256","indexed":false,"internalType":"uint256"},{"name":"price","type":"uint256","indexed":false,"internalType":"uint256"}],"anonymous":false},{"type":"event","name":"Withdrawal","inputs":[{"name":"user","type":"address","indexed":true,"internalType":"address"},{"name":"amount","type":"uint256","indexed":false,"internalType":"uint256"},{"name":"timestamp","type":"uint256","indexed":false,"internalType":"uint256"}],"anonymous":false}],"bytecode":{"object":"0x6080604052348015600e575f5ffd5b503360065f6101000a81548173ffffffffffffffffffffffffffffffffffffffff021916908373ffffffffffffffffffffffffffffffffffffffff1602179055505f600660146101000a81548160ff021916908315150217905550612ca7806100765f395ff3fe608060405260043610610122575f3560e01c80638456cb591161009f578063d251c05a11610063578063d251c05a14610478578063db2e21bc146104a2578063e275c997146104b8578063e6424c9f146104e2578063ee017ea61461050a57610226565b80638456cb59146103da5780638da5cb5b146103f0578063b187bd261461041a578063bff1f9e114610444578063d0e30db01461046e57610226565b80632e1a7d4d116100e65780632e1a7d4d146102f85780632eaaf8f6146103205780633f4ba83a1461034c5780634773489214610362578063672269731461039e57610226565b80630fbac3331461022a57806312065fe01461025457806315de4dfb1461027e5780631faba638146102a85780632d6ce61d146102d057610226565b3661022657345f5f3373ffffffffffffffffffffffffffffffffffffffff1673ffffffffffffffffffffffffffffffffffffffff1681526020019081526020015f205f8282546101729190611c64565b92505081905550345f5f3373ffffffffffffffffffffffffffffffffffffffff1673ffffffffffffffffffffffffffffffffffffffff1681526020019081526020015f2054036101d45760075f8154809291906101ce90611c97565b91905055505b3373ffffffffffffffffffffffffffffffffffffffff167f90890809c654f11d6e72a28fa60149770a0d11ec6c92319d6ceb2bb0a4ea1a15344260405161021c929190611ced565b60405180910390a2005b5f5ffd5b348015610235575f5ffd5b5061023e610532565b60405161024b9190611e8c565b60405180910390f35b34801561025f575f5ffd5b50610268610631565b6040516102759190611eac565b60405180910390f35b348015610289575f5ffd5b50610292610674565b60405161029f9190611f18565b60405180910390f35b3480156102b3575f5ffd5b506102ce60048036038101906102c99190611f89565b610700565b005b3480156102db575f5ffd5b506102f660048036038101906102f19190612000565b610b02565b005b348015610303575f5ffd5b5061031e6004803603810190610319919061203e565b610dcc565b005b34801561032b575f5ffd5b50610334610fa0565b60405161034393929190612069565b60405180910390f35b348015610357575f5ffd5b50610360610ff2565b005b34801561036d575f5ffd5b50610388600480360381019061038391906120f8565b611016565b6040516103959190611eac565b60405180910390f35b3480156103a9575f5ffd5b506103c460048036038101906103bf91906120f8565b611063565b6040516103d19190611eac565b60405180910390f35b3480156103e5575f5ffd5b506103ee611078565b005b3480156103fb575f5ffd5b5061040461109d565b6040516104119190612132565b60405180910390f35b348015610425575f5ffd5b5061042e6110c2565b60405161043b919061215a565b60405180910390f35b34801561044f575f5ffd5b506104586110d5565b6040516104659190611eac565b60405180910390f35b6104766110db565b005b348015610483575f5ffd5b5061048c611224565b6040516104999190612281565b60405180910390f35b3480156104ad575f5ffd5b506104b661130e565b005b3480156104c3575f5ffd5b506104cc6113e7565b6040516104d99190611eac565b60405180910390f35b3480156104ed575f5ffd5b50610508600480360381019061050391906122cb565b6113ed565b005b348015610515575f5ffd5b50610530600480360381019061052b919061232f565b611767565b005b606060025f3373ffffffffffffffffffffffffffffffffffffffff1673ffffffffffffffffffffffffffffffffffffffff1681526020019081526020015f20805480602002602001604051908101604052809291908181526020015f905b82821015610628578382905f5260205f2090600602016040518060e00160405290815f820154815260200160018201548152602001600282015481526020016003820154815260200160048201548152602001600582015f9054906101000a900460ff161515151581526020016005820160019054906101000a900460ff1660ff1660ff168152505081526020019060010190610590565b50505050905090565b5f5f5f3373ffffffffffffffffffffffffffffffffffffffff1673ffffffffffffffffffffffffffffffffffffffff1681526020019081526020015f2054905090565b61067c611c08565b60035f3373ffffffffffffffffffffffffffffffffffffffff1673ffffffffffffffffffffffffffffffffffffffff1681526020019081526020015f206040518060800160405290815f820154815260200160018201548152602001600282015f9054906101000a900460ff16151515158152602001600382015481525050905090565b610708611923565b610710611975565b5f60035f3373ffffffffffffffffffffffffffffffffffffffff1673ffffffffffffffffffffffffffffffffffffffff1681526020019081526020015f206040518060800160405290815f820154815260200160018201548152602001600282015f9054906101000a900460ff16151515158152602001600382015481525050905080604001516107d6576040517f08c379a00000000000000000000000000000000000000000000000000000000081526004016107cd906123ed565b60405180910390fd5b5f5f5f3373ffffffffffffffffffffffffffffffffffffffff1673ffffffffffffffffffffffffffffffffffffffff1681526020019081526020015f2054905086811015610859576040517f08c379a000000000000000000000000000000000000000000000000000000000815260040161085090612455565b60405180910390fd5b85851061089b576040517f08c379a0000000000000000000000000000000000000000000000000000000008152600401610892906124bd565b60405180910390fd5b8584116108dd576040517f08c379a00000000000000000000000000000000000000000000000000000000081526004016108d490612525565b60405180910390fd5b5f6040518060e001604052808881526020018981526020018781526020018681526020014281526020016001151581526020018560ff16815250905060025f3373ffffffffffffffffffffffffffffffffffffffff1673ffffffffffffffffffffffffffffffffffffffff1681526020019081526020015f2081908060018154018082558091505060019003905f5260205f2090600602015f909190919091505f820151815f01556020820151816001015560408201518160020155606082015181600301556080820151816004015560a0820151816005015f6101000a81548160ff02191690831515021790555060c08201518160050160016101000a81548160ff021916908360ff160217905550505087826109fb9190612543565b5f5f3373ffffffffffffffffffffffffffffffffffffffff1673ffffffffffffffffffffffffffffffffffffffff1681526020019081526020015f208190555060045f3373ffffffffffffffffffffffffffffffffffffffff1673ffffffffffffffffffffffffffffffffffffffff1681526020019081526020015f205f815480929190610a8890611c97565b919050555060085f815480929190610a9f90611c97565b91905055503373ffffffffffffffffffffffffffffffffffffffff167f9a99f0d83ea15216987ecd4ed332a7338eafafe12db86adf283528ec63c02d3f42868b8b604051610af09493929190612585565b60405180910390a25050505050505050565b610b0a611923565b60025f3373ffffffffffffffffffffffffffffffffffffffff1673ffffffffffffffffffffffffffffffffffffffff1681526020019081526020015f20805490508210610b8c576040517f08c379a0000000000000000000000000000000000000000000000000000000008152600401610b8390612612565b60405180910390fd5b5f60025f3373ffffffffffffffffffffffffffffffffffffffff1673ffffffffffffffffffffffffffffffffffffffff1681526020019081526020015f208381548110610bdc57610bdb612630565b5b905f5260205f2090600602019050806005015f9054906101000a900460ff16610c3a576040517f08c379a0000000000000000000000000000000000000000000000000000000008152600401610c31906126a7565b60405180910390fd5b5f815f015490505f826001015490505f82851115610c7b5782828487610c609190612543565b610c6a91906126c5565b610c749190612733565b9050610ca9565b82828685610c899190612543565b610c9391906126c5565b610c9d9190612733565b610ca69061276c565b90505b5f8183610cb691906127b2565b90505f5f5f3373ffffffffffffffffffffffffffffffffffffffff1673ffffffffffffffffffffffffffffffffffffffff1681526020019081526020015f205490508181610d049190611c64565b5f5f3373ffffffffffffffffffffffffffffffffffffffff1673ffffffffffffffffffffffffffffffffffffffff1681526020019081526020015f20819055505f866005015f6101000a81548160ff0219169083151502179055503373ffffffffffffffffffffffffffffffffffffffff167f266a1b0a00dd23c977bdcff5505281ef8ec719abd4e5c2e3af4e31973b47c9e7428860050160019054906101000a900460ff1686604051610dba93929190612802565b60405180910390a25050505050505050565b610dd4611923565b5f5f5f3373ffffffffffffffffffffffffffffffffffffffff1673ffffffffffffffffffffffffffffffffffffffff1681526020019081526020015f2054905081811015610e57576040517f08c379a0000000000000000000000000000000000000000000000000000000008152600401610e4e90612455565b60405180910390fd5b8181610e639190612543565b5f5f3373ffffffffffffffffffffffffffffffffffffffff1673ffffffffffffffffffffffffffffffffffffffff1681526020019081526020015f20819055505f3373ffffffffffffffffffffffffffffffffffffffff1683604051610ec890612864565b5f6040518083038185875af1925050503d805f8114610f02576040519150601f19603f3d011682016040523d82523d5f602084013e610f07565b606091505b5050905080610f4b576040517f08c379a0000000000000000000000000000000000000000000000000000000008152600401610f42906128c2565b60405180910390fd5b3373ffffffffffffffffffffffffffffffffffffffff167fdf273cb619d95419a9cd0ec88123a0538c85064229baa6363788f743fff90deb8442604051610f93929190611ced565b60405180910390a2505050565b5f5f5f60075460085460045f3373ffffffffffffffffffffffffffffffffffffffff1673ffffffffffffffffffffffffffffffffffffffff1681526020019081526020015f2054925092509250909192565b610ffa611a85565b5f600660146101000a81548160ff021916908315150217905550565b5f61101f611a85565b5f5f8373ffffffffffffffffffffffffffffffffffffffff1673ffffffffffffffffffffffffffffffffffffffff1681526020019081526020015f20549050919050565b6004602052805f5260405f205f915090505481565b611080611a85565b6001600660146101000a81548160ff021916908315150217905550565b60065f9054906101000a900473ffffffffffffffffffffffffffffffffffffffff1681565b600660149054906101000a900460ff1681565b60075481565b6110e3611923565b5f3411611125576040517f08c379a000000000000000000000000000000000000000000000000000000000815260040161111c9061292a565b60405180910390fd5b345f5f3373ffffffffffffffffffffffffffffffffffffffff1673ffffffffffffffffffffffffffffffffffffffff1681526020019081526020015f205f8282546111709190611c64565b92505081905550345f5f3373ffffffffffffffffffffffffffffffffffffffff1673ffffffffffffffffffffffffffffffffffffffff1681526020019081526020015f2054036111d25760075f8154809291906111cc90611c97565b91905055505b3373ffffffffffffffffffffffffffffffffffffffff167f90890809c654f11d6e72a28fa60149770a0d11ec6c92319d6ceb2bb0a4ea1a15344260405161121a929190611ced565b60405180910390a2565b606060015f3373ffffffffffffffffffffffffffffffffffffffff1673ffffffffffffffffffffffffffffffffffffffff1681526020019081526020015f20805480602002602001604051908101604052809291908181526020015f905b82821015611305578382905f5260205f2090600502016040518060a00160405290815f820154815260200160018201548152602001600282015f9054906101000a900460ff1615151515815260200160038201548152602001600482015f9054906101000a900460ff1660ff1660ff168152505081526020019060010190611282565b50505050905090565b611316611a85565b5f4790505f60065f9054906101000a900473ffffffffffffffffffffffffffffffffffffffff1673ffffffffffffffffffffffffffffffffffffffff168260405161136090612864565b5f6040518083038185875af1925050503d805f811461139a576040519150601f19603f3d011682016040523d82523d5f602084013e61139f565b606091505b50509050806113e3576040517f08c379a00000000000000000000000000000000000000000000000000000000081526004016113da90612992565b60405180910390fd5b5050565b60085481565b6113f5611923565b6113fd611975565b5f60035f3373ffffffffffffffffffffffffffffffffffffffff1673ffffffffffffffffffffffffffffffffffffffff1681526020019081526020015f206040518060800160405290815f820154815260200160018201548152602001600282015f9054906101000a900460ff16151515158152602001600382015481525050905080604001516114c3576040517f08c379a00000000000000000000000000000000000000000000000000000000081526004016114ba906123ed565b60405180910390fd5b5f5f5f3373ffffffffffffffffffffffffffffffffffffffff1673ffffffffffffffffffffffffffffffffffffffff1681526020019081526020015f205490505f6103e8876115129190612733565b8761151d9190611c64565b905080821015611562576040517f08c379a000000000000000000000000000000000000000000000000000000000815260040161155990612455565b60405180910390fd5b5f6040518060a0016040528089815260200188815260200187151581526020014281526020018660ff16815250905060015f3373ffffffffffffffffffffffffffffffffffffffff1673ffffffffffffffffffffffffffffffffffffffff1681526020019081526020015f2081908060018154018082558091505060019003905f5260205f2090600502015f909190919091505f820151815f0155602082015181600101556040820151816002015f6101000a81548160ff021916908315150217905550606082015181600301556080820151816004015f6101000a81548160ff021916908360ff1602179055505050818361165e9190612543565b5f5f3373ffffffffffffffffffffffffffffffffffffffff1673ffffffffffffffffffffffffffffffffffffffff1681526020019081526020015f208190555060045f3373ffffffffffffffffffffffffffffffffffffffff1673ffffffffffffffffffffffffffffffffffffffff1681526020019081526020015f205f8154809291906116eb90611c97565b919050555060085f81548092919061170290611c97565b91905055503373ffffffffffffffffffffffffffffffffffffffff167f7315db5de0c0a1b5ba4396d4e88a5548b43b9bfbf6cf290458c3c596300ac8e44288888c8c6040516117559594939291906129b0565b60405180910390a25050505050505050565b60648411156117ab576040517f08c379a00000000000000000000000000000000000000000000000000000000081526004016117a290612a4b565b60405180910390fd5b60648111156117ef576040517f08c379a00000000000000000000000000000000000000000000000000000000081526004016117e690612ab3565b60405180910390fd5b5f8311611831576040517f08c379a000000000000000000000000000000000000000000000000000000000815260040161182890612b1b565b60405180910390fd5b604051806080016040528085815260200184815260200183151581526020018281525060035f3373ffffffffffffffffffffffffffffffffffffffff1673ffffffffffffffffffffffffffffffffffffffff1681526020019081526020015f205f820151815f0155602082015181600101556040820151816002015f6101000a81548160ff021916908315150217905550606082015181600301559050503373ffffffffffffffffffffffffffffffffffffffff167fbdc8fdb0e2700e6e44dc7e3e10e8ff6e6aa04b212185417c1b53440988e2d0c5426040516119159190611eac565b60405180910390a250505050565b600660149054906101000a900460ff1615611973576040517f08c379a000000000000000000000000000000000000000000000000000000000815260040161196a90612b83565b60405180910390fd5b565b61197d611b16565b5f60035f3373ffffffffffffffffffffffffffffffffffffffff1673ffffffffffffffffffffffffffffffffffffffff1681526020019081526020015f206040518060800160405290815f820154815260200160018201548152602001600282015f9054906101000a900460ff161515151581526020016003820154815250509050806020015160045f3373ffffffffffffffffffffffffffffffffffffffff1673ffffffffffffffffffffffffffffffffffffffff1681526020019081526020015f205410611a82576040517f08c379a0000000000000000000000000000000000000000000000000000000008152600401611a7990612beb565b60405180910390fd5b50565b60065f9054906101000a900473ffffffffffffffffffffffffffffffffffffffff1673ffffffffffffffffffffffffffffffffffffffff163373ffffffffffffffffffffffffffffffffffffffff1614611b14576040517f08c379a0000000000000000000000000000000000000000000000000000000008152600401611b0b90612c53565b60405180910390fd5b565b5f6201518042611b269190612733565b90505f6201518060055f3373ffffffffffffffffffffffffffffffffffffffff1673ffffffffffffffffffffffffffffffffffffffff1681526020019081526020015f2054611b759190612733565b905080821115611c04575f60045f3373ffffffffffffffffffffffffffffffffffffffff1673ffffffffffffffffffffffffffffffffffffffff1681526020019081526020015f20819055504260055f3373ffffffffffffffffffffffffffffffffffffffff1673ffffffffffffffffffffffffffffffffffffffff1681526020019081526020015f20819055505b5050565b60405180608001604052805f81526020015f81526020015f151581526020015f81525090565b5f819050919050565b7f4e487b71000000000000000000000000000000000000000000000000000000005f52601160045260245ffd5b5f611c6e82611c2e565b9150611c7983611c2e565b9250828201905080821115611c9157611c90611c37565b5b92915050565b5f611ca182611c2e565b91507fffffffffffffffffffffffffffffffffffffffffffffffffffffffffffffffff8203611cd357611cd2611c37565b5b600182019050919050565b611ce781611c2e565b82525050565b5f604082019050611d005f830185611cde565b611d0d6020830184611cde565b9392505050565b5f81519050919050565b5f82825260208201905092915050565b5f819050602082019050919050565b611d4681611c2e565b82525050565b5f8115159050919050565b611d6081611d4c565b82525050565b5f60ff82169050919050565b611d7b81611d66565b82525050565b60e082015f820151611d955f850182611d3d565b506020820151611da86020850182611d3d565b506040820151611dbb6040850182611d3d565b506060820151611dce6060850182611d3d565b506080820151611de16080850182611d3d565b5060a0820151611df460a0850182611d57565b5060c0820151611e0760c0850182611d72565b50505050565b5f611e188383611d81565b60e08301905092915050565b5f602082019050919050565b5f611e3a82611d14565b611e448185611d1e565b9350611e4f83611d2e565b805f5b83811015611e7f578151611e668882611e0d565b9750611e7183611e24565b925050600181019050611e52565b5085935050505092915050565b5f6020820190508181035f830152611ea48184611e30565b905092915050565b5f602082019050611ebf5f830184611cde565b92915050565b608082015f820151611ed95f850182611d3d565b506020820151611eec6020850182611d3d565b506040820151611eff6040850182611d57565b506060820151611f126060850182611d3d565b50505050565b5f608082019050611f2b5f830184611ec5565b92915050565b5f5ffd5b611f3e81611c2e565b8114611f48575f5ffd5b50565b5f81359050611f5981611f35565b92915050565b611f6881611d66565b8114611f72575f5ffd5b50565b5f81359050611f8381611f5f565b92915050565b5f5f5f5f5f60a08688031215611fa257611fa1611f31565b5b5f611faf88828901611f4b565b9550506020611fc088828901611f4b565b9450506040611fd188828901611f4b565b9350506060611fe288828901611f4b565b9250506080611ff388828901611f75565b9150509295509295909350565b5f5f6040838503121561201657612015611f31565b5b5f61202385828601611f4b565b925050602061203485828601611f4b565b9150509250929050565b5f6020828403121561205357612052611f31565b5b5f61206084828501611f4b565b91505092915050565b5f60608201905061207c5f830186611cde565b6120896020830185611cde565b6120966040830184611cde565b949350505050565b5f73ffffffffffffffffffffffffffffffffffffffff82169050919050565b5f6120c78261209e565b9050919050565b6120d7816120bd565b81146120e1575f5ffd5b50565b5f813590506120f2816120ce565b92915050565b5f6020828403121561210d5761210c611f31565b5b5f61211a848285016120e4565b91505092915050565b61212c816120bd565b82525050565b5f6020820190506121455f830184612123565b92915050565b61215481611d4c565b82525050565b5f60208201905061216d5f83018461214b565b92915050565b5f81519050919050565b5f82825260208201905092915050565b5f819050602082019050919050565b60a082015f8201516121b05f850182611d3d565b5060208201516121c36020850182611d3d565b5060408201516121d66040850182611d57565b5060608201516121e96060850182611d3d565b5060808201516121fc6080850182611d72565b50505050565b5f61220d838361219c565b60a08301905092915050565b5f602082019050919050565b5f61222f82612173565b612239818561217d565b93506122448361218d565b805f5b8381101561227457815161225b8882612202565b975061226683612219565b925050600181019050612247565b5085935050505092915050565b5f6020820190508181035f8301526122998184612225565b905092915050565b6122aa81611d4c565b81146122b4575f5ffd5b50565b5f813590506122c5816122a1565b92915050565b5f5f5f5f608085870312156122e3576122e2611f31565b5b5f6122f087828801611f4b565b945050602061230187828801611f4b565b9350506040612312878288016122b7565b925050606061232387828801611f75565b91505092959194509250565b5f5f5f5f6080858703121561234757612346611f31565b5b5f61235487828801611f4b565b945050602061236587828801611f4b565b9350506040612376878288016122b7565b925050606061238787828801611f4b565b91505092959194509250565b5f82825260208201905092915050565b7f426f74206e6f74206163746976650000000000000000000000000000000000005f82015250565b5f6123d7600e83612393565b91506123e2826123a3565b602082019050919050565b5f6020820190508181035f830152612404816123cb565b9050919050565b7f496e73756666696369656e742062616c616e63650000000000000000000000005f82015250565b5f61243f601483612393565b915061244a8261240b565b602082019050919050565b5f6020820190508181035f83015261246c81612433565b9050919050565b7f53746f702d6c6f7373206d7573742062652062656c6f7720656e7472790000005f82015250565b5f6124a7601d83612393565b91506124b282612473565b602082019050919050565b5f6020820190508181035f8301526124d48161249b565b9050919050565b7f54616b652d70726f666974206d7573742062652061626f766520656e747279005f82015250565b5f61250f601f83612393565b915061251a826124db565b602082019050919050565b5f6020820190508181035f83015261253c81612503565b9050919050565b5f61254d82611c2e565b915061255883611c2e565b92508282039050818111156125705761256f611c37565b5b92915050565b61257f81611d66565b82525050565b5f6080820190506125985f830187611cde565b6125a56020830186612576565b6125b26040830185611cde565b6125bf6060830184611cde565b95945050505050565b7f496e76616c696420696e646578000000000000000000000000000000000000005f82015250565b5f6125fc600d83612393565b9150612607826125c8565b602082019050919050565b5f6020820190508181035f830152612629816125f0565b9050919050565b7f4e487b71000000000000000000000000000000000000000000000000000000005f52603260045260245ffd5b7f506f736974696f6e206e6f7420616374697665000000000000000000000000005f82015250565b5f612691601383612393565b915061269c8261265d565b602082019050919050565b5f6020820190508181035f8301526126be81612685565b9050919050565b5f6126cf82611c2e565b91506126da83611c2e565b92508282026126e881611c2e565b915082820484148315176126ff576126fe611c37565b5b5092915050565b7f4e487b71000000000000000000000000000000000000000000000000000000005f52601260045260245ffd5b5f61273d82611c2e565b915061274883611c2e565b92508261275857612757612706565b5b828204905092915050565b5f819050919050565b5f61277682612763565b91507f800000000000000000000000000000000000000000000000000000000000000082036127a8576127a7611c37565b5b815f039050919050565b5f6127bc82612763565b91506127c783612763565b92508282019050828112155f8312168382125f8412151617156127ed576127ec611c37565b5b92915050565b6127fc81612763565b82525050565b5f6060820190506128155f830186611cde565b6128226020830185612576565b61282f60408301846127f3565b949350505050565b5f81905092915050565b50565b5f61284f5f83612837565b915061285a82612841565b5f82019050919050565b5f61286e82612844565b9150819050919050565b7f5472616e73666572206661696c656400000000000000000000000000000000005f82015250565b5f6128ac600f83612393565b91506128b782612878565b602082019050919050565b5f6020820190508181035f8301526128d9816128a0565b9050919050565b7f4d757374206465706f736974206d6f7265207468616e203000000000000000005f82015250565b5f612914601883612393565b915061291f826128e0565b602082019050919050565b5f6020820190508181035f83015261294181612908565b9050919050565b7f456d657267656e6379207769746864726177206661696c6564000000000000005f82015250565b5f61297c601983612393565b915061298782612948565b602082019050919050565b5f6020820190508181035f8301526129a981612970565b9050919050565b5f60a0820190506129c35f830188611cde565b6129d0602083018761214b565b6129dd6040830186612576565b6129ea6060830185611cde565b6129f76080830184611cde565b9695505050505050565b7f4d617820706f736974696f6e2073697a652069732031303025000000000000005f82015250565b5f612a35601983612393565b9150612a4082612a01565b602082019050919050565b5f6020820190508181035f830152612a6281612a29565b9050919050565b7f4d696e20636f6e666964656e63652069732031303025000000000000000000005f82015250565b5f612a9d601683612393565b9150612aa882612a69565b602082019050919050565b5f6020820190508181035f830152612aca81612a91565b9050919050565b7f4461696c79206c696d6974206d75737420626520706f736974697665000000005f82015250565b5f612b05601c83612393565b9150612b1082612ad1565b602082019050919050565b5f6020820190508181035f830152612b3281612af9565b9050919050565b7f54726164696e67206973207061757365640000000000000000000000000000005f82015250565b5f612b6d601183612393565b9150612b7882612b39565b602082019050919050565b5f6020820190508181035f830152612b9a81612b61565b9050919050565b7f4461696c79207472616465206c696d69742072656163686564000000000000005f82015250565b5f612bd5601983612393565b9150612be082612ba1565b602082019050919050565b5f6020820190508181035f830152612c0281612bc9565b9050919050565b7f4f6e6c79206f776e65722063616e2063616c6c207468697300000000000000005f82015250565b5f612c3d601883612393565b9150612c4882612c09565b602082019050919050565b5f6020820190508181035f830152612c6a81612c31565b905091905056fea264697066735822122079ced7718cc14cd703c6fe2f451443e3b1d3aec0bddda25735487a8f4e39aada64736f6c63430008210033","linkReferences":{}},"methodIdentifiers":{"closePosition(uint256,uint256)":"2d6ce61d","configureBotSettings(uint256,uint256,bool,uint256)":"ee017ea6","dailyTradeCount(address)":"67226973","deposit()":"d0e30db0","emergencyWithdraw()":"db2e21bc","executeTrade(uint256,uint256,bool,uint8)":"e6424c9f","getBalance()":"12065fe0","getBotConfig()":"15de4dfb","getOpenPositions()":"0fbac333","getPublicStats()":"2eaaf8f6","getTradeHistory()":"d251c05a","getUserBalance(address)":"47734892","isPaused()":"b187bd26","openPosition(uint256,uint256,uint256,uint256,uint8)":"1faba638","owner()":"8da5cb5b","pause()":"8456cb59","totalTrades()":"e275c997","totalUsers()":"bff1f9e1","unpause()":"3f4ba83a","withdraw(uint256)":"2e1a7d4d"},"id":21}